:100000000C945F000C9487000C9487000C9487007C
:100010000C9487000C9487000C9487000C94870044
:100020000C9487000C9487000C9487000C94D802E1
:100030000C9487000C9487000C9487000C94870024
:100040000C9435050C9487000C94E2070C9414086A
:100050000C9487000C9487000C9487000C94870004
:100060000C9487000C948700000000080002010037
:100070000003040700000000000000000102040863
:100080001020408001020408102001020408102002
:10009000040404040404040402020202020203032E
:1000A0000303030300000000250028002B000000CC
:1000B0000000240027002A002602440842021124DE
:1000C0001FBECFEFD8E0DEBFCDBF11E0A0E0B1E0B2
:1000D000EAE9FBE102C005900D92A433B107D9F71C
:1000E00022E0A4E3B1E001C01D92AF3BB207E1F70B
:1000F00010E0CCEBD0E004C02297FE010E946D0B13
:10010000C83BD107C9F70E94F30A0C94C00D0C94A8
:100110000000FC01EE0FFF1FEE5BFE4F718360835A
:1001200049E2489F9001499F300D1124C901865B27
:100130009E4F0E942E050895CF93DF9326E040E85E
:1001400055E260E070E08DE192E00E94800761E09E
:100150008DE00E942E0640E065E070E08AE491E0C8
:100160000E94DB0440E064E070E083E791E00E94DD
:10017000DB0440E063E070E08CE991E00E94DB0486
:1001800040E062E070E085EC91E00E94DB04C0E0BA
:10019000D0E06AE570E0CE010E9489002196C4306B
:1001A000D105B9F7DF91CF9108950F931F93CF93A6
:1001B000DF93EC01BC018DE192E00E94D7088C81B5
:1001C0009D818230910509F4C0C08330910509F406
:1001D000BCC0019709F0C2C060E070E0CE010E948F
:1001E000870AFC018081843409F44BC044F48134D3
:1001F00099F1833409F0B2C0C0E0D0E00DC083357E
:10020000A9F0843531F0853409F0A8C0C0E0D0E011
:1002100019C0C4E1D0E04AC06AE570E0CE010E9496
:1002200089002196C430D105B9F798C0C0E0D0E06C
:1002300064E170E0CE010E9489002196C430D105AE
:10024000B9F78CC060EA70E0CE010E948900219667
:10025000C430D105B9F782C002E411E0C0E0D0E0BB
:10026000F801619171918F01603A71052CF46F5F13
:100270007F4FCE010E9489002196C430D10581F7BD
:100280006DC002E411E0C0E0D0E0F801619171912D
:100290008F01653171052CF061507109CE010E940A
:1002A00089002196C430D10581F758C000E010E0E4
:1002B000BE01C8010E9489000F5F1F4F0430110565
:1002C000B9F76EE170E080E090E00E94A20521960F
:1002D000C13AD10559F7C1EAD0E000E010E0BE0113
:1002E000C8010E9489000F5F1F4F04301105B9F744
:1002F0006EE170E080E090E00E94A2052197C43199
:10030000D10559F7C4E1D0E000E010E0BE01C8011A
:100310000E9489000F5F1F4F04301105B9F76AE092
:1003200070E080E090E00E94A2052196CA35D105D8
:1003300059F7C0E0D0E06AE570E0CE010E94890084
:100340002196C430D105B9F709C08091340190914C
:10035000350101969093350180933401DF91CF915F
:100360001F910F9108950F931F93CF93DF9300D0A8
:1003700000D000D0CDB7DEB78C01FC01848195811F
:100380008130910551F560E070E0C8010E94870A54
:10039000FC018081863439F0843551F461E08AE0D3
:1003A0000E94670634C060E08AE00E9467063FC092
:1003B000B801CE0101960E94010A6BE071E0CE0106
:1003C00001960E946D0ABC018DE192E00E94D7085F
:1003D000CE0101960E9430092EC0029761F560E0BF
:1003E00070E0C8010E94870AFC018081863489F090
:1003F000843509F561E070E0C8010E94870AFC01BC
:1004000080818C3421F08235B1F461E00EC061E06E
:100410000FC061E070E0C8010E94870AFC01808182
:100420008C3429F0823539F460E08AE002C060E063
:100430008BE00E94670626960FB6F894DEBF0FBECB
:10044000CDBFDF91CF911F910F910895CF93DF938F
:10045000CAE4D1E0CE010E949403188A1F86A996AF
:1004600081E0CE3ED807B1F765E271E08CE391E020
:100470000E949E0965E271E086E391E0DF91CF91F1
:100480000C949E0986E391E00E9430098CE391E090
:100490000C943009CF93DF9300D000D000D0CDB7BB
:1004A000DEB78DE192E00E949D061816190684F4CD
:1004B0008DE192E00E94B606682F8CE391E00E94E5
:1004C0005A0A62E070E080E090E00E94A205E9CF65
:1004D0008CE391E00E94DE0A8091400190914101FD
:1004E000029708F45CC060E070E08CE391E00E9449
:1004F000870AFC01808180930A012091400130919C
:10050000410141E050E06CE371E0CE0101960E94B0
:10051000990ABE016F5F7F4F86E391E00E940A0A4D
:10052000CE0101960E94300980910A018C3469F055
:10053000833501F566E371E0CE0101960E94010A60
:10054000CE0101960E94D50010C066E371E08DE1F6
:1005500092E00E94D70866E371E0CE0101960E9406
:10056000010ACE0101960E94B301CE0101960E94BC
:10057000300909C080913401909135010196909322
:100580003501809334016CE371E08DE192E00E94CB
:10059000D70865E271E08CE391E00E94160A269686
:1005A0000FB6F894DEBF0FBECDBFDF91CF91089597
:1005B0001F920F920FB60F9211242F933F934F93D8
:1005C0005F936F937F938F939F93AF93BF93EF93BB
:1005D000FF938091EF0187FF05C010928500109274
:1005E00084001AC02091EF01332727FD30958091B8
:1005F000EE0190E0281739077CF48091EF019927EC
:1006000087FD9095FC01EE0FFF1FE80FF91FE051E9
:10061000FE4F808186FD15C08091EF018F5F809332
:10062000EF012091EF01332727FD30958091EE01F6
:1006300090E028173907BCF48091EF018C305CF111
:1006400012C08091EF01992787FD9095FC01EE0F74
:10065000FF1FE80FF91FE051FE4F808160E08F73AC
:100660000E946706D9CF80918400909185000496FE
:1006700080349C4918F480E49CE905C08091840092
:1006800090918500049690938900809388008FEF65
:100690008093EF0138C020918400309185008091D3
:1006A000EF01992787FD9095FC01EE0FFF1FE80FE2
:1006B000F91FE051FE4F81819281820F931F909329
:1006C0008900809388008091EF01992787FD90959C
:1006D000FC01EE0FFF1FE80FF91FE051FE4F808174
:1006E00086FF11C08091EF01992787FD9095FC014D
:1006F000EE0FFF1FE80FF91FE051FE4F808161E010
:100700008F730E946706FF91EF91BF91AF919F9108
:100710008F917F916F915F914F913F912F910F90AA
:100720000FBE0F901F9018952091EE012C30A0F471
:1007300031E0320F3093EE01FC012083822F90E0F4
:10074000FC01EE0FFF1FE80FF91FE051FE4F88EB91
:100750009BE09283818308952FEFFC01208308950D
:10076000DF92EF92FF920F931F93CF93DF93EC01F1
:10077000D62E7A01890188818C3008F066C061E04C
:100780008D2D0E942E068881A82FB0E0FD01EE0F6E
:10079000FF1FEA0FFB1FE051FE4F2D2D2F7390819D
:1007A000907C922B908360E272E06E197F0977FF54
:1007B00002C06D5F7F4F75956795759567956983E5
:1007C00040E659E0401B510B57FF02C04D5F5F4FA1
:1007D00055954795559547954A836CE00E94130BB4
:1007E0009CE0899FB001112420E030E0A901460F70
:1007F000571FFA01EE0FFF1FE40FF51FE051FE4FE8
:10080000908196FD16C02F5F3F4F2C30310571F758
:1008100081110FC01092800082E0809381001092BD
:10082000850010928400B19A80916F00826080935D
:100830006F00888190E0FC01EE0FFF1FE80FF91FA9
:10084000E051FE4F8081806480838881DF91CF9169
:100850001F910F91FF90EF90DF90089520E639E00F
:1008600040E252E00C94B003FC0180818C3070F5C2
:10087000918128E830E0291B310997FD3395220F3B
:10088000331F220F331F621773077CF0928128E514
:1008900032E0291B310997FD3395220F331F220FB8
:1008A000331F621773070CF49B0122503109220F8A
:1008B000331F4FB7F89490E0FC01EE0FFF1FE80FD5
:1008C000F91FE051FE4F328321834FBF08954F92AD
:1008D0005F926F927F92AF92BF92CF92DF92EF9230
:1008E000FF920F931F93CF93DF93EC01603282E06E
:1008F00078070CF040C077FD06C0653B71052CF011
:1009000064EB70E002C060E070E0898128E830E0CC
:10091000281B310987FD3395220F331F220F331F08
:100920005901CC24B7FCC094DC2C882777FD809536
:10093000982F2A8148E552E0421B510927FD539523
:10094000440F551F440F551F2A01662457FC60941D
:10095000762C7F926F925F924F9214EBE12EF12CE6
:1009600000E010E020E030E0A9010E94E9080F90CB
:100970000F900F900F90CE01DF91CF911F910F91AB
:10098000FF90EF90DF90CF90BF90AF907F906F90EF
:100990005F904F900C943404FC01808190E0FC0146
:1009A000EE0FFF1FE80FF91FE051FE4F808186FB1D
:1009B000882780F90895CF92DF92FF920F931F93BB
:1009C000CF93DF9300D0CDB7DEB76C01F42E6983EF
:1009D0007A830E94CC0469817A81811135C0C60175
:1009E0000E942E046AE570E0C6010E9467048EE151
:1009F00090E0F601968F858F80ED97E09087878352
:100A000000E010E024E832E4018F128F238F348F4E
:100A10000AE118EF22EC3DE3058B168B278B308F14
:100A2000178E10A211A212A28DE290E0948383830C
:100A3000118A128A138A148A1186128613861486E2
:100A40001682158217A2F0A60F900F90DF91CF911A
:100A50001F910F91FF90DF90CF900895FC012785A3
:100A60003089620F731F0C9467041F920F920FB6A8
:100A70000F9211242F933F938F939F93AF93BF9324
:100A80008091150290911602A0911702B091180260
:100A90003091140223E0230F2D3720F40196A11D7D
:100AA000B11D05C026E8230F0296A11DB11D20939C
:100AB00014028093150290931602A0931702B0932C
:100AC00018028091190290911A02A0911B02B09114
:100AD0001C020196A11DB11D8093190290931A0268
:100AE000A0931B02B0931C02BF91AF919F918F9175
:100AF0003F912F910F900FBE0F901F9018953FB709
:100B0000F8948091190290911A02A0911B02B09161
:100B10001C0226B5A89B05C02F3F19F00196A11D08
:100B2000B11D3FBF6627782F892F9A2F620F711D45
:100B3000811D911D42E0660F771F881F991F4A95FE
:100B4000D1F70895CF92DF92EF92FF92CF93DF9388
:100B50006B017C010E947F05EB01C114D104E1040B
:100B6000F10489F00E94020B0E947F056C1B7D0B33
:100B7000683E734090F381E0C81AD108E108F1089B
:100B8000C851DC4FEACFDF91CF91FF90EF90DF901B
:100B9000CF900895789484B5826084BD84B58160D7
:100BA00084BD85B5826085BD85B5816085BDEEE675
:100BB000F0E0808181608083E1E8F0E01082808154
:100BC00082608083808181608083E0E8F0E08081C2
:100BD00081608083E1EBF0E0808184608083E0EBE2
:100BE000F0E0808181608083EAE7F0E080818460CA
:100BF0008083808182608083808181608083808126
:100C0000806880831092C1000895833081F028F4B9
:100C1000813099F08230A1F008958730A9F08830B2
:100C2000B9F08430D1F4809180008F7D03C0809131
:100C300080008F7780938000089584B58F7702C0FD
:100C400084B58F7D84BD08958091B0008F7703C0F7
:100C50008091B0008F7D8093B0000895CF93DF9393
:100C600090E0FC01E458FF4F2491FC01E057FF4F56
:100C70008491882349F190E0880F991FFC01E25587
:100C8000FF4FA591B4918C559F4FFC01C591D49114
:100C90009FB7611108C0F8948C91209582238C93A2
:100CA000888182230AC0623051F4F8948C91322FEB
:100CB000309583238C938881822B888304C0F89499
:100CC0008C91822B8C939FBFDF91CF9108950F93CE
:100CD0001F93CF93DF931F92CDB7DEB7282F30E05D
:100CE000F901E859FF4F8491F901E458FF4F14913D
:100CF000F901E057FF4F04910023C9F0882321F048
:100D000069830E9405066981E02FF0E0EE0FFF1F66
:100D1000EC55FF4FA591B4919FB7F8948C91611158
:100D200003C01095812301C0812B8C939FBF0F902E
:100D3000DF91CF911F910F910895FC01818D228D3C
:100D400090E0805C9F4F821B91098F7399270895D3
:100D5000FC01918D828D981731F0828DE80FF11D85
:100D6000858D90E008958FEF9FEF0895FC01918DA0
:100D7000828D981761F0828DDF01A80FB11D5D96FD
:100D80008C91928D9F5F9F73928F90E008958FEF6B
:100D90009FEF08958AE398E0892B49F080E090E086
:100DA000892B29F00E943A0881110C9400000895C3
:100DB000FC01848DDF01A80FB11DA35ABF4F2C91F8
:100DC000848D90E001968F739927848FA689B789C7
:100DD0002C93A089B1898C9180648C93938D848DA0
:100DE000981306C00288F389E02D80818F7D80836F
:100DF0000895CF93DF93EC01888D8823C9F0EA89A9
:100E0000FB89808185FD05C0A889B9898C9186FD03
:100E10000FC00FB607FCF5CF808185FFF2CFA88900
:100E2000B9898C9185FFEDCFCE010E94D806E7CF1E
:100E3000DF91CF910895CF92DF92FF920F931F938E
:100E4000CF93DF931F92CDB7DEB76C0181E0D6015F
:100E500058968C9358975B969C915B975C968C9177
:100E60005C97981307C05096ED91FC915197808143
:100E700085FD2EC0F601038D10E00F5F1F4F0F732D
:100E80001127F02EF601848DF81211C00FB607FC61
:100E9000F9CFD6015096ED91FC915197808185FF55
:100EA000F1CFC60169830E94D8066981EBCF838D9B
:100EB000E80FF11DE35AFF4F6083D6015B960C9358
:100EC0005B975296ED91FC915397808180620CC0A4
:100ED000D6015696ED91FC91579760835096ED910F
:100EE000FC91519780818064808381E090E00F9035
:100EF000DF91CF911F910F91FF90DF90CF900895D8
:100F0000BF92CF92DF92EF92FF92CF93DF93EC01EB
:100F10006A017B01B22EE889F98982E0808341155C
:100F200081EE580761057105A1F060E079E08DE37D
:100F300090E0A70196010E941F0B21503109410941
:100F400051095695479537952795211580E1380722
:100F500098F0E889F989108260E874E88EE190E001
:100F6000A70196010E941F0B215031094109510927
:100F70005695479537952795EC85FD853083EE8509
:100F8000FF852083188EEC89FD89B082EA89FB8970
:100F9000808180618083EA89FB8980818860808389
:100FA000EA89FB89808180688083EA89FB89808166
:100FB0008F7D8083DF91CF91FF90EF90DF90CF9076
:100FC000BF9008951F920F920FB60F9211242F9386
:100FD0008F939F93EF93FF93E0912D02F0912E0258
:100FE0008081E0913302F091340282FD12C0908141
:100FF000809136028F5F8F7320913702821751F0F4
:10100000E0913602F0E0E35EFD4F958F809336026B
:1010100001C08081FF91EF919F918F912F910F904F
:101020000FBE0F901F9018951F920F920FB60F9240
:1010300011242F933F934F935F936F937F938F93DD
:101040009F93AF93BF93EF93FF938DE192E00E9444
:10105000D806FF91EF91BF91AF919F918F917F91B2
:101060006F915F914F913F912F910F900FBE0F9015
:101070001F9018958DE192E00E949D0621E0892B3A
:1010800009F420E0822F08951092200210921F028E
:1010900088EE93E0A0E0B0E08093210290932202DA
:1010A000A0932302B093240287E191E090931E0263
:1010B00080931D0285EC90E090932A028093290290
:1010C00084EC90E090932C0280932B0280EC90E0D3
:1010D00090932E0280932D0281EC90E09093300249
:1010E00080932F0282EC90E0909332028093310241
:1010F00086EC90E090933402809333021092360293
:101100001092370210923802109239020895CF924D
:10111000DF92EF92FF920F931F93CF93DF937C01A7
:101120006A01EB0100E010E00C151D0571F06991FA
:10113000D701ED91FC910190F081E02DC701099557
:10114000892B19F00F5F1F4FEFCFC801DF91CF91AF
:101150001F910F91FF90EF90DF90CF900895611550
:10116000710581F0DB010D900020E9F7AD014150E0
:101170005109461B570BDC01ED91FC910280F38174
:10118000E02D099480E090E00895DC01ED91FC9160
:10119000DB0114964D915C9115976D917C910280C5
:1011A000F381E02D099463E271E00C94AF080F9392
:1011B0001F93CF93DF93EC010E94C5088C01CE01F1
:1011C0000E94D308800F911FDF91CF911F910F9143
:1011D00008954F925F926F927F92AF92BF92CF929B
:1011E000DF92EF92FF920F931F93CF93DF93CDB7D0
:1011F000DEB729013A01621B730B840B950B298919
:101200003A894B895C892A193B094C095D09298B6C
:101210003A8B4B8B5C8B9B01AC0169897A898B89FA
:101220009C890E94030BE418F50806091709A80118
:1012300097010E94410B2A0D3B1D4C1D5D1DCA01EB
:10124000B901DF91CF911F910F91FF90EF90DF9047
:10125000CF90BF90AF907F906F905F904F90089528
:10126000FC01808191810C94180CCF93DF93EC01E9
:1012700088819981009711F00E94180C19821882B8
:101280001D821C821B821A82DF91CF9108950F93D9
:101290001F93CF93DF93EC018B016F5F7F4F8881AA
:1012A00099810E94A70C009731F0998388831B8352
:1012B0000A8381E001C080E0DF91CF911F910F91FF
:1012C0000895CF93DF93EC0188819981892B29F0D0
:1012D0008A819B818617970760F4CE010E94470997
:1012E000882341F08C819D81892B19F4E881F98153
:1012F000108281E0DF91CF910895EF92FF920F93DA
:101300001F93CF93DF93EC017B018A01BA010E9406
:101310006109811104C0CE010E94350907C01D83F7
:101320000C83B701888199810E94820DCE01DF91E3
:10133000CF911F910F91FF90EF900895FC011182C2
:10134000108213821282158214826115710559F080
:10135000FB0101900020E9F7AF0141505109461B04
:10136000570B0C947D0908950F931F93CF93DF9330
:101370008C01EB01FC0180819181009799F0428101
:1013800053812C813D814217530750F06881798148
:101390000E94820D8C819D81F8019583848313C006
:1013A0000E94180C88819981F801918380838A8139
:1013B0009B81938382838C819D8195838483198211
:1013C00018821B821A821D821C82DF91CF911F918D
:1013D0000F910895CF93DF93EC01FB0186179707D8
:1013E00061F0608171816115710529F04481558139
:1013F0000E947D0902C00E943509CE01DF91CF9184
:101400000895FC01118210821382128215821482C7
:101410000C94EA09CF93DF93EC018617970711F03C
:101420000E94B409CE01DF91CF910895CF93DF934D
:10143000EC016115710561F0FB0101900020E9F7F5
:10144000AF0141505109461B570B0E947D0902C054
:101450000E943509CE01DF91CF910895EF92FF925E
:101460000F931F93CF93DF93EC017B010C811D81C0
:101470006115710511F480E016C04115510591F018
:10148000040F151FB8010E9461098823A1F3288168
:1014900039818C819D81B701820F931F0E94820D3B
:1014A0001D830C8381E0DF91CF911F910F91FF90FD
:1014B000EF900895CF93DF9300D0CDB7DEB7698367
:1014C0001A8241E050E0BE016F5F7F4F0E942E0AFA
:1014D0000F900F90DF91CF910895CF93DF93EC01A0
:1014E0006115710569F0FB0101900020E9F7AF017A
:1014F00041505109461B570B0E942E0A811103C00F
:10150000CE010E943509CE01DF91CF910895FC01F3
:10151000848195816817790720F4808191810097F3
:1015200029F41092BA028AEB92E00895860F971F71
:101530000895BF92CF92DF92EF92FF920F931F9385
:10154000CF93DF936C017B01EA01890124173507F2
:1015500020F48D2FE901042F182F65E271E0C601F8
:101560000E949E09D70114968D919C911597C817DA
:10157000D907C8F48017910708F48C01D701ED91C1
:10158000FC911197E00FF11FB08010826D917C915A
:101590006C0F7D1FC6010E94160AD701ED91FC91C8
:1015A000E00FF11FB082C601DF91CF911F910F9123
:1015B000FF90EF90DF90CF90BF900895CF93DF938F
:1015C000FC01C081D181209751F08881882339F0B6
:1015D000992787FD90950E94710D8993F6CFDF9131
:1015E000CF91089508950E94CA050E94F20A0E94B0
:1015F0009C00CAECD6E00E944A022097E1F30E94C8
:10160000CA06F9CF0895DB018F939F930E94600B68
:10161000BF91AF91A29F800D911DA39F900DB29F8E
:10162000900D11240895991B79E004C0991F961715
:1016300008F0961B881F7A95C9F780950895A1E256
:101640001A2EAA1BBB1BFD010DC0AA1FBB1FEE1F3C
:10165000FF1FA217B307E407F50720F0A21BB30B87
:10166000E40BF50B661F771F881F991F1A9469F703
:1016700060957095809590959B01AC01BD01CF015F
:101680000895052E97FB1EF400940E94580B57FDF9
:1016900007D00E941F0B07FC03D04EF40C94580B8C
:1016A00050954095309521953F4F4F4F5F4F08958E
:1016B00090958095709561957F4F8F4F9F4F0895BE
:1016C0000E94710BA59F900DB49F900DA49F800D5B
:1016D000911D11240895EE0FFF1F0590F491E02D48
:1016E0000994A29FB001B39FC001A39F700D811DFB
:1016F0001124911DB29F700D811D1124911D08951B
:10170000CF93DF938230910510F482E090E0E09176
:10171000BD02F091BE0220E030E0A0E0B0E03097E2
:1017200039F14081518148175907B8F048175907D6
:1017300071F482819381109729F013969C938E9374
:1017400012972CC09093BE028093BD0227C0211532
:10175000310531F04217530718F0A901DB0101C030
:10176000EF019A01BD01DF010280F381E02DD7CFA7
:1017700021153105F9F0281B390B2430310580F48F
:101780008A819B816115710521F0FB01938382831E
:1017900004C09093BE028093BD02FE01329644C005
:1017A000FE01E20FF31F8193919322503109398397
:1017B00028833AC02091BB023091BC02232B41F414
:1017C00020910201309103013093BC022093BB02AF
:1017D00020910001309101012115310541F42DB70F
:1017E0003EB74091040150910501241B350BE09157
:1017F000BB02F091BC02E217F307A0F42E1B3F0BD3
:101800002817390778F0AC014E5F5F4F2417350772
:1018100048F04E0F5F1F5093BC024093BB02819370
:10182000919302C0E0E0F0E0CF01DF91CF91089505
:10183000CF93DF93009709F487C0FC01329713829E
:101840001282C091BD02D091BE02209781F4208106
:101850003181280F391F8091BB029091BC02821701
:10186000930779F5F093BC02E093BB026DC0DE01F3
:1018700020E030E0AE17BF0750F412964D915C9116
:1018800013979D014115510509F1DA01F3CFB38397
:10189000A28340815181840F951F8A179B0771F4A1
:1018A0008D919C911197840F951F0296918380834F
:1018B00012968D919C911397938382832115310504
:1018C00029F4F093BE02E093BD023EC0D901139605
:1018D000FC93EE9312974D915D91A40FB51FEA17FB
:1018E000FB0779F480819181840F951F0296D901BD
:1018F00011969C938E938281938113969C938E93E1
:101900001297E0E0F0E08A819B81009719F0FE01D8
:10191000EC01F9CFCE01029628813981820F931F05
:101920002091BB023091BC022817390769F4309727
:1019300029F41092BE021092BD0202C013821282DC
:10194000D093BC02C093BB02DF91CF910895A0E079
:10195000B0E0EDEAFCE00C948D0DEC01CB0120979A
:1019600019F40E94800BB8C0FE01E60FF71F9E011C
:1019700022503109E217F30708F4ACC0D9010D91E8
:101980001C91119706171707B8F00530110508F4D8
:101990009FC0A801445051094617570708F498C042
:1019A00002501109061B170B019311936D937C9341
:1019B000CF010E94180C8CC05B01A01AB10A4E0125
:1019C000800E911EA091BD02B091BE02612C712CBF
:1019D00060E070E0109709F449C0A815B905C9F591
:1019E000ED90FC901197670142E0C40ED11CCA141F
:1019F000DB0478F147018A189B08640142E0C40EB9
:101A0000D11C1296BC9012971396AC91B5E0CB16F0
:101A1000D10440F0B282A38391828082D9018D9358
:101A20009C9309C00E5F1F4F0E0D1F1DF9011183FE
:101A30000083EB2DFA2F6115710531F0DB01139650
:101A4000FC93EE93129744C0F093BE02E093BD0264
:101A50003FC06D917C9111976616770608F43B01A3
:101A6000BD0112960D90BC91A02DB4CF6091BB0228
:101A70007091BC0268157905E9F468167906D0F40E
:101A800040910001509101014115510541F44DB7BC
:101A90005EB76091040170910501461B570BE41776
:101AA000F507C0F4F093BC02E093BB02F901918307
:101AB00080830EC00E94800B7C01009759F0A80122
:101AC000BE010E94790DCE010E94180CC70104C00E
:101AD000CE0102C080E090E0CDB7DEB7EEE00C941E
:101AE000A90D9111089581568A5108F480528558A4
:101AF0000895FB01DC0102C001900D92415050405D
:101B0000D8F70895FB01DC0101900D920020E1F768
:101B100008952F923F924F925F926F927F928F9291
:101B20009F92AF92BF92CF92DF92EF92FF920F936C
:101B30001F93CF93DF93CDB7DEB7CA1BDB0B0FB676
:101B4000F894DEBF0FBECDBF09942A883988488833
:101B50005F846E847D848C849B84AA84B984C884C9
:101B6000DF80EE80FD800C811B81AA81B981CE0FC0
:101B7000D11D0FB6F894DEBF0FBECDBFED010895A5
:101B800010E0CCEBD0E004C0FE010E946D0B229669
:0A1B9000CE3BD107C9F7F894FFCF50
:101B9A000000BF0280000100000041202D2D2045D9
:101BAA00727200000000001B0787089D06B606A88F
:101BBA0006F9060D0A006E616E00696E66006F76A0
:041BCA0066002E0083
:00000001FF
